{"abi":[{"type":"constructor","inputs":[{"name":"_duUSD","type":"address","internalType":"address"}],"stateMutability":"nonpayable"},{"type":"function","name":"PairToken","inputs":[{"name":"","type":"address","internalType":"address"}],"outputs":[{"name":"","type":"address","internalType":"address"}],"stateMutability":"view"},{"type":"function","name":"addStablePool","inputs":[{"name":"_stablePool","type":"address","internalType":"address"},{"name":"_pairToken","type":"address","internalType":"address"}],"outputs":[],"stateMutability":"nonpayable"},{"type":"function","name":"balance","inputs":[{"name":"stablePool","type":"address","internalType":"address"},{"name":"isMint","type":"bool","internalType":"bool"},{"name":"amount","type":"uint256","internalType":"uint256"}],"outputs":[],"stateMutability":"nonpayable"},{"type":"function","name":"duUSD","inputs":[],"outputs":[{"name":"","type":"address","internalType":"address"}],"stateMutability":"view"},{"type":"function","name":"owner","inputs":[],"outputs":[{"name":"","type":"address","internalType":"address"}],"stateMutability":"view"},{"type":"function","name":"renounceOwnership","inputs":[],"outputs":[],"stateMutability":"nonpayable"},{"type":"function","name":"transferOwnership","inputs":[{"name":"newOwner","type":"address","internalType":"address"}],"outputs":[],"stateMutability":"nonpayable"},{"type":"event","name":"OwnershipTransferred","inputs":[{"name":"previousOwner","type":"address","indexed":true,"internalType":"address"},{"name":"newOwner","type":"address","indexed":true,"internalType":"address"}],"anonymous":false},{"type":"error","name":"OwnableInvalidOwner","inputs":[{"name":"owner","type":"address","internalType":"address"}]},{"type":"error","name":"OwnableUnauthorizedAccount","inputs":[{"name":"account","type":"address","internalType":"address"}]}],"bytecode":{"object":"0x6080346100c657601f61057038819003918201601f19168301916001600160401b038311848410176100cb578084926020946040528339810103126100c657516001600160a01b0390818116908190036100c65733156100ad5760005460018060a01b0319903382821617600055604051933391167f8be0079c531659141344cd1fd0a4f28419497f9722a3daafe3b4186f6b6457e0600080a3600154161760015561048e90816100e28239f35b604051631e4fbdf760e01b815260006004820152602490fd5b600080fd5b634e487b7160e01b600052604160045260246000fdfe6080604081815260048036101561001557600080fd5b600092833560e01c908162be0cae146103895750806309c507ef146103605780635fa5106e14610259578063715018a6146101fc5780638da5cb5b146101d057806396572e92146100f85763f2fde38b1461006f57600080fd5b346100f45760203660031901126100f4576100886103c1565b9061009161042c565b6001600160a01b039182169283156100de57505082546001600160a01b0319811683178455167f8be0079c531659141344cd1fd0a4f28419497f9722a3daafe3b4186f6b6457e08380a380f35b51631e4fbdf760e01b8152908101849052602490fd5b8280fd5b50346100f457816003193601126100f4576101116103c1565b916001600160a01b0360243581811693908490036101cc5761013161042c565b60035490680100000000000000008210156101b95760018201806003558210156101a657507fc2575a0e9e593c00f959f8c92f12db2869c3395a3b0502d05e2516446f71f85b0193166bffffffffffffffffffffffff60a01b9381858254161790558452600260205283209182541617905580f35b634e487b7160e01b875260329052602486fd5b634e487b7160e01b875260419052602486fd5b8580fd5b5050346101f857816003193601126101f857905490516001600160a01b039091168152602090f35b5080fd5b833461025657806003193601126102565761021561042c565b80546001600160a01b03198116825581906001600160a01b03167f8be0079c531659141344cd1fd0a4f28419497f9722a3daafe3b4186f6b6457e08280a380f35b80fd5b5090346100f45760603660031901126100f4576102746103c1565b60243580151580910361035c5760209160016044359261029261042c565b0361031157600154845163a9059cbb60e01b81526001600160a01b03928316968101969096526024860192909252849160449183918891165af190811561030857506102dc575080f35b6102fd9060203d602011610301575b6102f581836103dc565b810190610414565b5080f35b503d6102eb565b513d84823e3d90fd5b60015484516323b872dd60e01b81526001600160a01b03928316968101969096523060248701526044860192909252849160649183918891165af190811561030857506102dc575080f35b8480fd5b5050346101f857816003193601126101f85760015490516001600160a01b039091168152602090f35b849084346100f45760203660031901126100f4576020926001600160a01b039190826103b36103c1565b168152600285522054168152f35b600435906001600160a01b03821682036103d757565b600080fd5b90601f8019910116810190811067ffffffffffffffff8211176103fe57604052565b634e487b7160e01b600052604160045260246000fd5b908160209103126103d7575180151581036103d75790565b6000546001600160a01b0316330361044057565b60405163118cdaa760e01b8152336004820152602490fdfea264697066735822122094450038215d29ff47070f9bff9ef0bf3cdd6bd48ae89e2da18d6f268b7bc83964736f6c63430008170033","linkReferences":{}},"methodIdentifiers":{"PairToken(address)":"00be0cae","addStablePool(address,address)":"96572e92","balance(address,bool,uint256)":"5fa5106e","duUSD()":"09c507ef","owner()":"8da5cb5b","renounceOwnership()":"715018a6","transferOwnership(address)":"f2fde38b"},"id":45}