{"abi":[{"type":"constructor","inputs":[{"name":"_collateralToken","type":"address","internalType":"address"},{"name":"_amm","type":"address","internalType":"address"},{"name":"_oracle","type":"address","internalType":"address"},{"name":"_stablecoin","type":"address","internalType":"address"}],"stateMutability":"nonpayable"},{"type":"function","name":"AMM","inputs":[],"outputs":[{"name":"","type":"address","internalType":"contract ILLAMMA"}],"stateMutability":"view"},{"type":"function","name":"COLLATERAL_TOKEN","inputs":[],"outputs":[{"name":"","type":"address","internalType":"contract IERC20"}],"stateMutability":"view"},{"type":"function","name":"STABLECOIN","inputs":[],"outputs":[{"name":"","type":"address","internalType":"contract IERC20"}],"stateMutability":"view"},{"type":"function","name":"admin","inputs":[],"outputs":[{"name":"","type":"address","internalType":"address"}],"stateMutability":"view"},{"type":"function","name":"deposit","inputs":[{"name":"amountIn","type":"uint256","internalType":"uint256"}],"outputs":[],"stateMutability":"nonpayable"},{"type":"function","name":"depositETH","inputs":[],"outputs":[],"stateMutability":"payable"},{"type":"function","name":"liquidate","inputs":[{"name":"user","type":"address","internalType":"address"},{"name":"use_eth","type":"bool","internalType":"bool"}],"outputs":[],"stateMutability":"nonpayable"},{"type":"function","name":"oracle","inputs":[],"outputs":[{"name":"","type":"address","internalType":"address"}],"stateMutability":"view"},{"type":"function","name":"positions","inputs":[{"name":"","type":"address","internalType":"address"}],"outputs":[{"name":"collateral","type":"uint256","internalType":"uint256"},{"name":"debt","type":"uint256","internalType":"uint256"},{"name":"liquidation_price","type":"uint256","internalType":"uint256"}],"stateMutability":"view"},{"type":"function","name":"withdraw","inputs":[],"outputs":[],"stateMutability":"nonpayable"},{"type":"function","name":"withdrawETH","inputs":[],"outputs":[],"stateMutability":"payable"}],"bytecode":{"object":"0x60e08060405234620001cc57608081620014708038038091620000238285620001d1565b833981010312620001cc5762000039816200020b565b6020620000488184016200020b565b9260446200006760606200005f604085016200020b565b93016200020b565b9160018060a01b0319946000968796338189541617885560018060a01b0380948180951660c0521690600154161760015516928360805216918260a052604051948593849263095ea7b360e01b8452600484015260001960248401525af18015620001c1576200017b575b60405161124f908162000221823960805181818161020e015281816104b2015281816107ae015281816109e101528181610aaa01528181610d990152610efe015260a0518181816101cd0152818161048e0152818161077e0152818161092601528181610ace01528181610dd601528181610e770152610f44015260c051818181610101015281816103b80152818161042f015281816106ac01528181610a330152610cec0152f35b6020813d602011620001b8575b816200019760209383620001d1565b81010312620001b4575180151503620001b15780620000d2565b80fd5b5080fd5b3d915062000188565b6040513d84823e3d90fd5b600080fd5b601f909101601f19168101906001600160401b03821190821017620001f557604052565b634e487b7160e01b600052604160045260246000fd5b51906001600160a01b0382168203620001cc5756fe608060408181526004918236101561001657600080fd5b600092833560e01c9182633199ab0114610c6f575081633ccfd60b14610a1057816344a70686146109cc57816355f575101461097e5781637dc0d1d01461095557816393a3977614610911578163b6b55f251461066d578163e086e5ec146103e7578163f5f1f1a7146103a3578163f6326fb3146100c8575063f851a4401461009e57600080fd5b346100c457816003193601126100c457905490516001600160a01b039091168152602090f35b5080fd5b9190508260031936011261039f57600634023481046006143415171561038c5760015482516341976e0960e01b81526001600160a01b037f000000000000000000000000000000000000000000000000000000000000000081168683018190526020969294600a9004939192918316908786602481855afa958615610382579088918a9761034c575b506024885180948193638b1b64bd60e01b8352878301525afa9081156103425790610199918991610315575b5061019461018e60ff34931661117c565b8761118a565b611153565b9160078502948086046007149015171561030257855163a9059cbb60e01b81523381840190815260208101869052899493927f000000000000000000000000000000000000000000000000000000000000000081169290918a9082908190604001038189875af180156102f8576102cb575b507f000000000000000000000000000000000000000000000000000000000000000016803b156102bd57849260849189519586948593630c4630e560e11b8552840152602483015234604483015233606483015234905af180156102c1576102a9575b505082600280945195610280876110d2565b348752808701938452600a83880195048552338852528520935184555160018401555191015580f35b6102b290611104565b6102bd57843861026e565b8480fd5b85513d84823e3d90fd5b6102ea908a3d8c116102f1575b6102e28183611118565b8101906111aa565b503861020b565b503d6102d8565b89513d88823e3d90fd5b634e487b7160e01b885260118252602488fd5b6103359150883d8a1161033b575b61032d8183611118565b81019061113a565b3861017d565b503d610323565b86513d8a823e3d90fd5b8281939298503d831161037b575b6103648183611118565b81010312610376578790519538610151565b600080fd5b503d61035a565b87513d8b823e3d90fd5b634e487b7160e01b845260118352602484fd5b8280fd5b5050346100c457816003193601126100c457517f00000000000000000000000000000000000000000000000000000000000000006001600160a01b03168152602090f35b90508260031936011261039f5733835260029060209082825260018486200154156102bd578460018060a01b0360248482600154168851928380926341976e0960e01b8252867f000000000000000000000000000000000000000000000000000000000000000016898301525afa90811561066357839161062f575b5061047b9033845286865286888520015411156111c2565b855163061deed760e21b815233848201527f00000000000000000000000000000000000000000000000000000000000000008216917f0000000000000000000000000000000000000000000000000000000000000000168582602481845afa9182156106255784926105f3575b50803b156105ef57875163e79a408960e01b81526001600160a01b038416868201908152602081019390935233604084015293918291859182908490829060600103925af19283156105e35785936105c6575b5050338088528583528688206001015487516323b872dd60e01b8152948501918252306020830152604082015283919082908990829060600103925af180156105bc579183916000959361059f575b50338652528320828155826001820155015580f35b6105b590823d84116102f1576102e28183611118565b503861058a565b84513d87823e3d90fd5b6105d291929350611104565b6105df578290863861053b565b8580fd5b508651903d90823e3d90fd5b8380fd5b935090508483813d811161061e575b61060c8183611118565b810103126103765787925190386104e8565b503d610602565b88513d86823e3d90fd5b809350858092503d831161065c575b6106488183611118565b810103126103765761047b87925190610463565b503d61063e565b87513d85823e3d90fd5b90503461039f57602090816003193601126105ef5780359260068402848104600614851517156108fe57600a90049060018060a01b03806001541693817f000000000000000000000000000000000000000000000000000000000000000016948351956341976e0960e01b875280838801528787602481855afa9687156108f4579088918b986108c3575b506024865180948193638b1b64bd60e01b8352878301525afa908982156108b85761073560ff61073b948c94610194949161089b575b501661117c565b8861118a565b9160078602958087046007149015171561088857835163a9059cbb60e01b815233818401908152602081018790528a9493929190899082908190604001038188867f0000000000000000000000000000000000000000000000000000000000000000165af1801561087e57610861575b507f00000000000000000000000000000000000000000000000000000000000000001690813b156105ef5760648991858094885196879586946321ec87bf60e21b865285015260248401523360448401525af1801561085757610843575b50506002809482519661081b886110d2565b8752808701938452600a83880195048552338852528520935184555160018401555191015580f35b61084c90611104565b6105df578538610809565b83513d84823e3d90fd5b61087790893d8b116102f1576102e28183611118565b50386107ab565b86513d87823e3d90fd5b634e487b7160e01b895260118252602489fd5b6108b291508c8d3d1061033b5761032d8183611118565b3861072e565b8551903d90823e3d90fd5b8281939299503d83116108ed575b6108db8183611118565b810103126103765787905196386106f8565b503d6108d1565b85513d8c823e3d90fd5b634e487b7160e01b865260118352602486fd5b5050346100c457816003193601126100c457517f00000000000000000000000000000000000000000000000000000000000000006001600160a01b03168152602090f35b5050346100c457816003193601126100c45760015490516001600160a01b039091168152602090f35b5050346100c45760203660031901126100c45760609181906001600160a01b036109a66110bc565b168152600260205220805491600260018301549201549181519384526020840152820152f35b5050346100c457816003193601126100c457517f00000000000000000000000000000000000000000000000000000000000000006001600160a01b03168152602090f35b90503461039f578260031936011261039f5760018060a01b0390816001541691807f000000000000000000000000000000000000000000000000000000000000000016845180946341976e0960e01b8252828583015281602460209788935afa8015610c65578790610c36575b610a979150338852600286526002878920015411156111c2565b845163061deed760e21b815233848201527f00000000000000000000000000000000000000000000000000000000000000008316927f0000000000000000000000000000000000000000000000000000000000000000169187918681602481885afa908115610c2c578391610bfb575b50843b1561039f578751630d74dd9960e21b81526001600160a01b039283168188019081529285166020840152604083019190915233606083015293829185919082908490829060800103925af1928315610bef578593610bd6575b505033808752600283528587206001015486516323b872dd60e01b8152948501918252306020830152604082015283919082908890829060600103925af18015610bc95760029260009492849261059f5750338652528320828155826001820155015580f35b50505051903d90823e3d90fd5b610be291929350611104565b6102bd5782908538610b63565b508551903d90823e3d90fd5b809350878092503d8311610c25575b610c148183611118565b810103126103765787915138610b07565b503d610c0a565b88513d85823e3d90fd5b508481813d8311610c5e575b610c4c8183611118565b8101031261037657610a979051610a7d565b503d610c42565b86513d89823e3d90fd5b9150346105ef57826003193601126105ef57610c896110bc565b926024359182151583036105df5785546001600160a01b0394908516330361107c57508385168652602093600285528287209183805195610cc9876110d2565b8454968781526002600187015496878b84015201549283910152836001541691847f000000000000000000000000000000000000000000000000000000000000000016928751916341976e0960e01b835284868401528a83602481855afa928315611072578d9361103f575b50821015610ffe578b9392918a6024928a5193848092638b1b64bd60e01b8252888b8301525afa918215610ff45790610d8f92918c8793610fc8575b505060ff610d82610d89928b611153565b921661117c565b9061118a565b5015610ef35750827f000000000000000000000000000000000000000000000000000000000000000016803b156100c457855163e79a408960e01b81526001600160a01b037f00000000000000000000000000000000000000000000000000000000000000008616811685830190815260208101999099528a166040890152968291889182908490829060600103925af1978815610ee757879897959697610ecf575b610e7397505b86516323b872dd60e01b81526001600160a01b0390911692810192835230602084015260408301949094529295869384929091839160600190565b03927f0000000000000000000000000000000000000000000000000000000000000000165af1908115610ec65750610ea9578280f35b81610ebf92903d106102f1576102e28183611118565b5038808280f35b513d85823e3d90fd5b9450610edb8197611104565b6105df57858794610e32565b508451903d90823e3d90fd5b8395979893969294967f000000000000000000000000000000000000000000000000000000000000000016803b1561039f578851630d74dd9960e21b81526001600160a01b039283168782019081527f000000000000000000000000000000000000000000000000000000000000000089168416602082015260408101959095529185166060850152909283919082908490829060800103925af1801561034257610fa9575b5091610e73949391878794610e38565b9186939197610fbc610e73979694611104565b97919350919394610f99565b610d89929350610fea60ff9282610d8293903d1061033b5761032d8183611118565b939250508c610d71565b89513d87823e3d90fd5b6064858b808b519262461bcd60e51b845283015260248201527f50726963652069732061626f7665206c69717569646174696f6e2070726963656044820152fd5b9092508a81813d831161106b575b6110578183611118565b8101031261106757519138610d35565b8c80fd5b503d61104d565b89513d8f823e3d90fd5b602060649262461bcd60e51b8352820152601860248201527f4f6e6c792061646d696e2063616e206c697175696461746500000000000000006044820152fd5b600435906001600160a01b038216820361037657565b6060810190811067ffffffffffffffff8211176110ee57604052565b634e487b7160e01b600052604160045260246000fd5b67ffffffffffffffff81116110ee57604052565b90601f8019910116810190811067ffffffffffffffff8211176110ee57604052565b90816020910312610376575160ff811681036103765790565b8181029291811591840414171561116657565b634e487b7160e01b600052601160045260246000fd5b604d811161116657600a0a90565b8115611194570490565b634e487b7160e01b600052601260045260246000fd5b90816020910312610376575180151581036103765790565b156111c957565b60405162461bcd60e51b815260206004820152602260248201527f506f736974696f6e206973206174207269736b206f66206c697175696461746960448201526137b760f11b6064820152608490fdfea2646970667358221220331abf5e88244f04172ff007e520d577792c643b0f2e0da5d901f1d9a480772764736f6c63430008170033","linkReferences":{}},"methodIdentifiers":{"AMM()":"44a70686","COLLATERAL_TOKEN()":"f5f1f1a7","STABLECOIN()":"93a39776","admin()":"f851a440","deposit(uint256)":"b6b55f25","depositETH()":"f6326fb3","liquidate(address,bool)":"3199ab01","oracle()":"7dc0d1d0","positions(address)":"55f57510","withdraw()":"3ccfd60b","withdrawETH()":"e086e5ec"},"id":32}