{"abi":[{"type":"constructor","inputs":[{"name":"_borrowedToken","type":"address","internalType":"address"},{"name":"_collateralToken","type":"address","internalType":"address"},{"name":"_priceOracle","type":"address","internalType":"address"}],"stateMutability":"nonpayable"},{"type":"receive","stateMutability":"payable"},{"type":"function","name":"addLiquidity","inputs":[{"name":"_amountTokenA","type":"uint256","internalType":"uint256"},{"name":"_amountTokenB","type":"uint256","internalType":"uint256"},{"name":"account","type":"address","internalType":"address"}],"outputs":[],"stateMutability":"nonpayable"},{"type":"function","name":"addLiquidityETH","inputs":[{"name":"_token","type":"address","internalType":"address"},{"name":"_amountToken","type":"uint256","internalType":"uint256"},{"name":"_amountEth","type":"uint256","internalType":"uint256"},{"name":"account","type":"address","internalType":"address"}],"outputs":[],"stateMutability":"payable"},{"type":"function","name":"admin","inputs":[],"outputs":[{"name":"","type":"address","internalType":"address"}],"stateMutability":"view"},{"type":"function","name":"adminFee","inputs":[],"outputs":[{"name":"","type":"uint256","internalType":"uint256"}],"stateMutability":"view"},{"type":"function","name":"borrowedToken","inputs":[],"outputs":[{"name":"","type":"address","internalType":"contract IERC20"}],"stateMutability":"view"},{"type":"function","name":"borrowedTokenAmount","inputs":[],"outputs":[{"name":"","type":"uint256","internalType":"uint256"}],"stateMutability":"view"},{"type":"function","name":"collateralToken","inputs":[],"outputs":[{"name":"","type":"address","internalType":"contract IERC20"}],"stateMutability":"view"},{"type":"function","name":"collateralTokenAmount","inputs":[],"outputs":[{"name":"","type":"uint256","internalType":"uint256"}],"stateMutability":"view"},{"type":"function","name":"fee","inputs":[],"outputs":[{"name":"","type":"uint256","internalType":"uint256"}],"stateMutability":"view"},{"type":"function","name":"getAMAPrice","inputs":[],"outputs":[{"name":"","type":"uint256","internalType":"uint256"}],"stateMutability":"view"},{"type":"function","name":"k","inputs":[],"outputs":[{"name":"","type":"uint256","internalType":"uint256"}],"stateMutability":"view"},{"type":"function","name":"owner","inputs":[],"outputs":[{"name":"","type":"address","internalType":"address"}],"stateMutability":"view"},{"type":"function","name":"priceOracleContract","inputs":[],"outputs":[{"name":"","type":"address","internalType":"contract IPriceOracle"}],"stateMutability":"view"},{"type":"function","name":"removeLiquidity","inputs":[{"name":"_tokenA","type":"address","internalType":"address"},{"name":"_tokenB","type":"address","internalType":"address"},{"name":"_share","type":"uint256","internalType":"uint256"},{"name":"account","type":"address","internalType":"address"}],"outputs":[],"stateMutability":"nonpayable"},{"type":"function","name":"removeLiquidityETH","inputs":[{"name":"_token","type":"address","internalType":"address"},{"name":"_share","type":"uint256","internalType":"uint256"},{"name":"account","type":"address","internalType":"address"}],"outputs":[],"stateMutability":"payable"},{"type":"function","name":"renounceOwnership","inputs":[],"outputs":[],"stateMutability":"nonpayable"},{"type":"function","name":"setAdmin","inputs":[{"name":"_admin","type":"address","internalType":"address"}],"outputs":[],"stateMutability":"nonpayable"},{"type":"function","name":"setAdminFee","inputs":[{"name":"_adminFee","type":"uint256","internalType":"uint256"}],"outputs":[],"stateMutability":"nonpayable"},{"type":"function","name":"setFee","inputs":[{"name":"_fee","type":"uint256","internalType":"uint256"}],"outputs":[],"stateMutability":"nonpayable"},{"type":"function","name":"share","inputs":[{"name":"","type":"address","internalType":"address"}],"outputs":[{"name":"","type":"uint256","internalType":"uint256"}],"stateMutability":"view"},{"type":"function","name":"swapBForC","inputs":[{"name":"amountIn","type":"uint256","internalType":"uint256"}],"outputs":[],"stateMutability":"nonpayable"},{"type":"function","name":"swapCForB","inputs":[{"name":"amountIn","type":"uint256","internalType":"uint256"}],"outputs":[],"stateMutability":"payable"},{"type":"function","name":"transferOwnership","inputs":[{"name":"newOwner","type":"address","internalType":"address"}],"outputs":[],"stateMutability":"nonpayable"},{"type":"event","name":"OwnershipTransferred","inputs":[{"name":"previousOwner","type":"address","indexed":true,"internalType":"address"},{"name":"newOwner","type":"address","indexed":true,"internalType":"address"}],"anonymous":false},{"type":"event","name":"SetAdminFee","inputs":[{"name":"fee","type":"uint256","indexed":false,"internalType":"uint256"}],"anonymous":false},{"type":"event","name":"SetFee","inputs":[{"name":"fee","type":"uint256","indexed":false,"internalType":"uint256"}],"anonymous":false},{"type":"event","name":"TokenExchange","inputs":[{"name":"buyer","type":"address","indexed":true,"internalType":"address"},{"name":"soldId","type":"uint256","indexed":false,"internalType":"uint256"},{"name":"tokensSold","type":"uint256","indexed":false,"internalType":"uint256"},{"name":"boughtId","type":"uint256","indexed":false,"internalType":"uint256"},{"name":"tokensBought","type":"uint256","indexed":false,"internalType":"uint256"}],"anonymous":false},{"type":"error","name":"OwnableInvalidOwner","inputs":[{"name":"owner","type":"address","internalType":"address"}]},{"type":"error","name":"OwnableUnauthorizedAccount","inputs":[{"name":"account","type":"address","internalType":"address"}]},{"type":"error","name":"ReentrancyGuardReentrantCall","inputs":[]}],"bytecode":{"object":"0x60e03461014357601f61131e38819003918201601f19168301916001600160401b0383118484101761014857808492606094604052833981010312610143576100478161015e565b61005f60406100586020850161015e565b930161015e565b91331561012a57600080546001600160a01b03198082163390811784556040519691956001600160a01b039592948694859391908416907f8be0079c531659141344cd1fd0a4f28419497f9722a3daafe3b4186f6b6457e09080a360018055166080521660a0521660c05233906004541617600455670de0b6b3a76400006007556111ab908161017382396080518181816103d801528181610604015281816107fd015261087b015260a05181818161043b015281816105880152610d50015260c05181610a480152f35b604051631e4fbdf760e01b815260006004820152602490fd5b600080fd5b634e487b7160e01b600052604160045260246000fd5b51906001600160a01b03821682036101435756fe60806040818152600480361015610021575b505050361561001f57600080fd5b005b600092833560e01c9081631877bb5c14610f3457508063188c61ca14610de2578063255f390a14610db757806326e4753214610d0157806335d3766414610a77578063457454db14610a335780634df760de14610a1457806369fe0e2d146109ba578063704b6c0214610957578063715018a6146108fa5780637770002d146108db5780637ad6c4341461077757806387b21efc1461050c5780638beb60b6146104b15780638da5cb5b14610489578063a0be06f91461046a578063b2016bd414610426578063b4f40c6114610407578063c710ccd6146103c3578063ddca3f43146103a0578063e79a4089146101a6578063f2fde38b146101515763f851a44003610011573461014d578260031936011261014d575490516001600160a01b03909116815260209150f35b8280fd5b503461014d57602036600319011261014d5761016b610f68565b916101746110df565b6001600160a01b03831615610190578361018d8461112e565b80f35b51631e4fbdf760e01b8152908101839052602490fd5b5090606036600319011261014d576101bc610f68565b602435926101c8610f99565b916101d16110df565b84156103665760018060a01b03809316918287526020936008855286868920541061032e578790818080808b6002549961020b828c611086565b81845260088d528d84205461021f91611066565b9a8b61022a91611099565b6002556003549d61023b908f611099565b60035580835260088c528c83208281549061025591611099565b905582f115610322578254875163a9059cbb60e01b81529082166001600160a01b031693810193845260208401959095529394938493869390928492909183906040010393165af192831561031957506102dd926102e694926102c09287926102ec575b5050611022565b6102d7600354916102d18184611066565b92611066565b90611086565b60075490611086565b60075580f35b61030b9250803d10610312575b6103038183610fd2565b81019061100a565b38806102b9565b503d6102f9565b513d86823e3d90fd5b508551903d90823e3d90fd5b855162461bcd60e51b81528083018690526012602482015271496e73756666696369656e7420736861726560701b6044820152606490fd5b835162461bcd60e51b81526020818401526014602482015273125b9d985b1a59081cda185c9948185b5bdd5b9d60621b6044820152606490fd5b5050346103bf57816003193601126103bf576020906005549051908152f35b5080fd5b5050346103bf57816003193601126103bf57517f00000000000000000000000000000000000000000000000000000000000000006001600160a01b03168152602090f35b5050346103bf57816003193601126103bf576020906007549051908152f35b5050346103bf57816003193601126103bf57517f00000000000000000000000000000000000000000000000000000000000000006001600160a01b03168152602090f35b5050346103bf57816003193601126103bf576020906006549051908152f35b5050346103bf57816003193601126103bf57905490516001600160a01b039091168152602090f35b50903461014d57602036600319011261014d57816020916105007f2f0d0ace1d699b471d7b39522b5c8aae053bce1b422b7a4fe8f09bd6562a4b7494359260018060a01b0390541633146110a6565b8160065551908152a180f35b50903461014d57606036600319011261014d5781359061058360243593610531610f99565b6105396110df565b60035484516323b872dd60e01b8082526001600160a01b0384811683870190815230602082810191909152604082018b9052949a949791969391889183918e918391829160600190565b03918a7f0000000000000000000000000000000000000000000000000000000000000000165af190811561076d578b91610750575b501561070d578583916105cd8a600354610faf565b6003558354895191825287166001600160a01b03168185019081523060208201526040810193909352918290819060600103818d897f0000000000000000000000000000000000000000000000000000000000000000165af1908115610703578a916106e6575b50156106a3575091610661949391610650600894600254610faf565b600255168752528420918254610faf565b9055600754670de0b6b3a764000081036106865750506102e660035460025490611086565b61069e6102e6926102d7600354916102d18184611066565b611086565b855162461bcd60e51b8152908101859052601d60248201527f626f72726f776564546f6b656e207472616e73666572206661696c65640000006044820152606490fd5b6106fd9150863d8811610312576103038183610fd2565b38610634565b87513d8c823e3d90fd5b865162461bcd60e51b8152808301879052601f60248201527f636f6c6c61746572616c546f6b656e207472616e73666572206661696c6564006044820152606490fd5b6107679150873d8911610312576103038183610fd2565b386105b8565b88513d8d823e3d90fd5b50602091826003193601126108d75761078e61110b565b823415610865576107f8926107a534600354610faf565b90816003556107cc6107c56107bf60025494600754611066565b84611099565b8093611099565b600255835163a9059cbb60e01b8152339181019182526020820192909252909384918291604090910190565b0381877f00000000000000000000000000000000000000000000000000000000000000006001600160a01b03165af190811561085c575061083e575b50505b6001805580f35b8161085492903d10610312576103038183610fd2565b503880610834565b513d85823e3d90fd5b826107a56108769435600354610faf565b0381877f00000000000000000000000000000000000000000000000000000000000000006001600160a01b03165af190811561085c57506108b9575b5050610837565b816108cf92903d10610312576103038183610fd2565b5038806108b2565b8380fd5b5050346103bf57816003193601126103bf576020906002549051908152f35b83346109545780600319360112610954576109136110df565b80546001600160a01b03198116825581906001600160a01b03167f8be0079c531659141344cd1fd0a4f28419497f9722a3daafe3b4186f6b6457e08280a380f35b80fd5b503461014d57602036600319011261014d57610971610f68565b81549092906001600160a01b0361098b33828416146110a6565b841680916bffffffffffffffffffffffff60a01b161783556109ab6110df565b15610190578361018d8461112e565b50903461014d57602036600319011261014d5781602091610a087e172ddfc5ae88d08b3de01a5a187667c37a5a53989e8c175055cb6c993792a794359260018060a01b0390541633146110a6565b8160055551908152a180f35b5050346103bf57816003193601126103bf576020906003549051908152f35b5050346103bf57816003193601126103bf57517f00000000000000000000000000000000000000000000000000000000000000006001600160a01b03168152602090f35b503461014d57608036600319011261014d57610a91610f68565b6001600160a01b0392602435848116939190849003610cfd5760443593610ab6610f83565b90610abf6110df565b868216938489526020956008875287858b205410610cba5760025497610af9610ae8828b611086565b888d5260088a52878d205490611066565b9660035499828b10610c7757888110610c34578c93838b93610b2e8f968f95610b268f92610b7d98611099565b600355611099565b600255865260088452898620610b45828254611099565b9055895163a9059cbb60e01b8082526001600160a01b03909a1688820190815260208101929092529d8e938492889291849160400190565b0393165af1998a15610c2a5788999a98969798610c0d575b5082548751958652166001600160a01b0316918401918252602082019690965291948592839190829060400103925af19081156103195750916102e693916102dd93610bef575b50506102d7600354916102d18184611066565b81610c0592903d10610312576103038183610fd2565b503880610bdc565b610c2390873d8911610312576103038183610fd2565b5038610b95565b86513d84823e3d90fd5b875162461bcd60e51b81528086018b9052601c60248201527f496e73756666696369656e7420546f6b656e204220696e20706f6f6c000000006044820152606490fd5b875162461bcd60e51b81528086018b9052601c60248201527f496e73756666696369656e7420546f6b656e204120696e20706f6f6c000000006044820152606490fd5b845162461bcd60e51b8152808301889052601b60248201527f4e6f7420656e6f756768206c697175696469747920746f6b656e7300000000006044820152606490fd5b8580fd5b50903461014d57602036600319011261014d576020610d4b92610d2261110b565b610d2f8135600254610faf565b906107cc6107c5600354610d4585600754611066565b90611099565b0381867f00000000000000000000000000000000000000000000000000000000000000006001600160a01b03165af1908115610dae5750610d8f575b506001805580f35b610da79060203d602011610312576103038183610fd2565b5038610d87565b513d84823e3d90fd5b5050346103bf57816003193601126103bf57602090610ddb60035460025490611066565b9051908152f35b50608036600319011261014d57610df7610f68565b906024359260443591610e08610f83565b610e106110df565b833403610edb57610e6e60208760035497610e2b348a610faf565b600355855487516323b872dd60e01b81526001600160a01b039182169781019788523060208901526040880193909352959193849283918d918991849160600190565b0393165af1908115610ed15796610e95610e9d926106619798998b91610eb2575b50611022565b600254610faf565b60025516855260086020528420918254610faf565b610ecb915060203d602011610312576103038183610fd2565b38610e8f565b84513d8a823e3d90fd5b506020608492519162461bcd60e51b8352820152602d60248201527f45544820616d6f756e7420646f6573206e6f74206d617463682077697468207460448201526c1a19481d985b1d59481cd95b9d609a1b6064820152fd5b8490843461014d57602036600319011261014d576020926001600160a01b03610f5b610f68565b1681526008845220548152f35b600435906001600160a01b0382168203610f7e57565b600080fd5b606435906001600160a01b0382168203610f7e57565b604435906001600160a01b0382168203610f7e57565b91908201809211610fbc57565b634e487b7160e01b600052601160045260246000fd5b90601f8019910116810190811067ffffffffffffffff821117610ff457604052565b634e487b7160e01b600052604160045260246000fd5b90816020910312610f7e57518015158103610f7e5790565b1561102957565b60405162461bcd60e51b8152602060048201526015602482015274151bdad95b881d1c985b9cd9995c8819985a5b1959605a1b6044820152606490fd5b8115611070570490565b634e487b7160e01b600052601260045260246000fd5b81810292918115918404141715610fbc57565b91908203918211610fbc57565b156110ad57565b60405162461bcd60e51b815260206004820152600a60248201526927b7363c9030b236b4b760b11b6044820152606490fd5b6000546001600160a01b031633036110f357565b60405163118cdaa760e01b8152336004820152602490fd5b60026001541461111c576002600155565b604051633ee5aeb560e01b8152600490fd5b600080546001600160a01b039283166001600160a01b03198216811783559216907f8be0079c531659141344cd1fd0a4f28419497f9722a3daafe3b4186f6b6457e09080a356fea2646970667358221220deac33dcc0dd916ac772b859c6d9bd6ca9004745ce2251bd923916f15fc8ff1764736f6c63430008170033","linkReferences":{}},"methodIdentifiers":{"addLiquidity(uint256,uint256,address)":"87b21efc","addLiquidityETH(address,uint256,uint256,address)":"188c61ca","admin()":"f851a440","adminFee()":"a0be06f9","borrowedToken()":"c710ccd6","borrowedTokenAmount()":"7770002d","collateralToken()":"b2016bd4","collateralTokenAmount()":"4df760de","fee()":"ddca3f43","getAMAPrice()":"255f390a","k()":"b4f40c61","owner()":"8da5cb5b","priceOracleContract()":"457454db","removeLiquidity(address,address,uint256,address)":"35d37664","removeLiquidityETH(address,uint256,address)":"e79a4089","renounceOwnership()":"715018a6","setAdmin(address)":"704b6c02","setAdminFee(uint256)":"8beb60b6","setFee(uint256)":"69fe0e2d","share(address)":"1877bb5c","swapBForC(uint256)":"26e47532","swapCForB(uint256)":"7ad6c434","transferOwnership(address)":"f2fde38b"},"id":31}