{"abi":[{"type":"constructor","inputs":[{"name":"_token1","type":"address","internalType":"address"},{"name":"_token2","type":"address","internalType":"address"}],"stateMutability":"nonpayable"},{"type":"function","name":"addLiquidity","inputs":[{"name":"token1Amount","type":"uint256","internalType":"uint256"},{"name":"token2Amount","type":"uint256","internalType":"uint256"}],"outputs":[],"stateMutability":"nonpayable"},{"type":"function","name":"getAmountOut","inputs":[{"name":"amountIn","type":"uint256","internalType":"uint256"},{"name":"reserveIn","type":"uint256","internalType":"uint256"},{"name":"reserveOut","type":"uint256","internalType":"uint256"}],"outputs":[{"name":"","type":"uint256","internalType":"uint256"}],"stateMutability":"view"},{"type":"function","name":"getPrice","inputs":[{"name":"isToken1","type":"bool","internalType":"bool"}],"outputs":[{"name":"","type":"uint256","internalType":"uint256"}],"stateMutability":"view"},{"type":"function","name":"removeLiquidity","inputs":[{"name":"liquidity","type":"uint256","internalType":"uint256"}],"outputs":[],"stateMutability":"nonpayable"},{"type":"function","name":"reserve1","inputs":[],"outputs":[{"name":"","type":"uint256","internalType":"uint256"}],"stateMutability":"view"},{"type":"function","name":"reserve2","inputs":[],"outputs":[{"name":"","type":"uint256","internalType":"uint256"}],"stateMutability":"view"},{"type":"function","name":"swap","inputs":[{"name":"fromToken","type":"address","internalType":"address"},{"name":"amountIn","type":"uint256","internalType":"uint256"}],"outputs":[],"stateMutability":"nonpayable"},{"type":"function","name":"token1","inputs":[],"outputs":[{"name":"","type":"address","internalType":"address"}],"stateMutability":"view"},{"type":"function","name":"token2","inputs":[],"outputs":[{"name":"","type":"address","internalType":"address"}],"stateMutability":"view"}],"bytecode":{"object":"0x60803461008d57601f610c4038819003918201601f19168301916001600160401b0383118484101761009257808492604094855283398101031261008d57610052602061004b836100a8565b92016100a8565b600080546001600160a01b039384166001600160a01b03199182161790915560018054929093169116179055604051610b8390816100bd8239f35b600080fd5b634e487b7160e01b600052604160045260246000fd5b51906001600160a01b038216820361008d5756fe6040608081526004908136101561001557600080fd5b600091823560e01c8063054d50d41461076257806325be124e146107395780635a76f25e1461071a5780635c0b9a2b146106fb5780639c8f9f23146105535780639cd441da146103be578063d004f0f7146100e6578063d21220a7146100ba5763e245b5af1461008457600080fd5b346100b65760203660031901126100b657359182151583036100b357506100ac602092610962565b9051908152f35b80fd5b8280fd5b5050346100e257816003193601126100e257905490516001600160a01b039091168152602090f35b5080fd5b5090346100b657806003193601126100b6576001600160a01b0391803583811691908290036103ba5760243591848654168114809181156103ac575b5015610375576101338315156107f2565b1561028c576101ce9382610189600254610157816101518582610835565b1161092b565b6003546101816101796101738361016e8887610835565b610858565b83610858565b978893610835565b600255610858565b6003558187541690855180926323b872dd60e01b8252818a8160209b8c9630338c850160409194939294606082019560018060a01b0380921683521660208201520152565b03925af18015610282579186939161021d969593610265575b50600154855163a9059cbb60e01b8152339381019384526020840194909452929586939190911691839189918391604090910190565b03925af190811561025c575061023257505080f35b8161025192903d10610255575b61024981836108d6565b81019061090e565b5080f35b503d61023f565b513d85823e3d90fd5b61027b90853d87116102555761024981836108d6565b50386101e7565b85513d89823e3d90fd5b61030a93826102c46003546102a5816101518582610835565b6002546102bc6101796101738361016e8887610835565b600355610858565b600255816001541690855180926323b872dd60e01b8252818a8160209b8c9630338c850160409194939294606082019560018060a01b0380921683521660208201520152565b03925af18015610282579186939161021d969593610358575b508754855163a9059cbb60e01b8152339381019384526020840194909452929586939190911691839189918391604090910190565b61036e90853d87116102555761024981836108d6565b5038610323565b835162461bcd60e51b8152602081840152601160248201527024b73b30b634b210333937b6aa37b5b2b760791b6044820152606490fd5b905085600154161438610122565b8480fd5b50346100b657816003193601126100b657803591602435918315158061054a575b6103e890610898565b82840361050857845482516323b872dd60e01b80825233848301908152306020808301919091526040820189905295949193919289926001600160a01b039288918391829003606001908290879087165af180156104fe57926104849695928895928a956104e1575b50600154875194855233938501938452306020850152604084019590955292968794939093169284928391606090910190565b03925af19081156104d85750916104b494916104a9936104ba575b5050600254610835565b600255600354610835565b60035580f35b816104d092903d106102555761024981836108d6565b50388061049f565b513d87823e3d90fd5b6104f790873d89116102555761024981836108d6565b5038610451565b86513d85823e3d90fd5b6020606492519162461bcd60e51b8352820152601a60248201527f4d757374206d61696e7461696e20636f6e7374616e742073756d0000000000006044820152fd5b508215156103df565b5090346100b657602091826003193601126106f75780359081156106b457906105a5916105cc6002546105868185610865565b6101816105b76105ad60035498899461059f8688610835565b90610878565b988998610865565b61059f8486610835565b968793811515806106ab575b61016e90610898565b6003558554845163a9059cbb60e01b8082523384830190815260208101959095529388926001600160a01b03929189918391829003604001908290879087165af180156106a157918895939161065398979593610684575b50600154169286519788958694859384523390840160209093929193604081019460018060a01b031681520152565b03925af190811561025c5750610667578280f35b8161067d92903d106102555761024981836108d6565b5038808280f35b61069a90873d89116102555761024981836108d6565b5038610624565b87513d85823e3d90fd5b508415156105c3565b825162461bcd60e51b8152908101849052601860248201527f496e76616c6964206c697175696469747920616d6f756e7400000000000000006044820152606490fd5b8380fd5b5050346100e257816003193601126100e2576020906003549051908152f35b5050346100e257816003193601126100e2576020906002549051908152f35b5050346100e257816003193601126100e25760015490516001600160a01b039091168152602090f35b5082346100b35760603660031901126100b3575080356024356044359261078a8315156107f2565b811515806107e9575b156107b3576020856100ac866107ad8161016e8989610835565b90610858565b606490602086519162461bcd60e51b8352820152601060248201526f496e76616c696420726573657276657360801b6044820152fd5b50831515610793565b156107f957565b60405162461bcd60e51b8152602060048201526014602482015273125b9d985b1a59081a5b9c1d5d08185b5bdd5b9d60621b6044820152606490fd5b9190820180921161084257565b634e487b7160e01b600052601160045260246000fd5b9190820391821161084257565b8181029291811591840414171561084257565b8115610882570490565b634e487b7160e01b600052601260045260246000fd5b1561089f57565b60405162461bcd60e51b815260206004820152600f60248201526e496e76616c696420616d6f756e747360881b6044820152606490fd5b90601f8019910116810190811067ffffffffffffffff8211176108f857604052565b634e487b7160e01b600052604160045260246000fd5b90816020910312610926575180151581036109265790565b600080fd5b1561093257565b60405162461bcd60e51b81526020600482015260086024820152674f766572666c6f7760c01b6044820152606490fd5b1515600103610a52576001546040516370a0823160e01b808252306004830152916020916001600160a01b039183908290602490829086165afa918215610a15578391600093610a21575b50600054169360246040518096819382523060048301525afa918215610a15576000926109e3575b506109e09250610878565b90565b90915082813d8311610a0e575b6109fa81836108d6565b81010312610926576109e0915190386109d5565b503d6109f0565b6040513d6000823e3d90fd5b8281939294503d8311610a4b575b610a3981836108d6565b810103126109265782905191386109ad565b503d610a2f565b600080546040516370a0823160e01b8082523060048301529293926020926001600160a01b03929084908290602490829087165afa928315610b425784918794610b0d575b50600154169160246040518094819382523060048301525afa928315610b02578593610acb575b50506109e0929350610878565b9080929350813d8311610afb575b610ae381836108d6565b810103126106f7576109e09293505190839238610abe565b503d610ad9565b6040513d87823e3d90fd5b8281939295503d8311610b3b575b610b2581836108d6565b81010312610b37578390519238610a97565b8580fd5b503d610b1b565b6040513d88823e3d90fdfea26469706673582212203f90b9c2dabf701722496bc59ff80471fe9005493740fc39a90804d5d99520ae64736f6c63430008170033","linkReferences":{}},"methodIdentifiers":{"addLiquidity(uint256,uint256)":"9cd441da","getAmountOut(uint256,uint256,uint256)":"054d50d4","getPrice(bool)":"e245b5af","removeLiquidity(uint256)":"9c8f9f23","reserve1()":"5a76f25e","reserve2()":"5c0b9a2b","swap(address,uint256)":"d004f0f7","token1()":"d21220a7","token2()":"25be124e"},"id":38}