{"abi":[{"type":"constructor","inputs":[{"name":"initialOwner","type":"address","internalType":"address"}],"stateMutability":"nonpayable"},{"type":"function","name":"emitPriceEvent","inputs":[{"name":"_token","type":"address","internalType":"address"},{"name":"_price","type":"uint256","internalType":"uint256"}],"outputs":[],"stateMutability":"nonpayable"},{"type":"function","name":"getPrice","inputs":[{"name":"_token","type":"address","internalType":"address"}],"outputs":[{"name":"","type":"uint256","internalType":"uint256"}],"stateMutability":"view"},{"type":"function","name":"getPriceDecimals","inputs":[{"name":"_token","type":"address","internalType":"address"}],"outputs":[{"name":"","type":"uint8","internalType":"uint8"}],"stateMutability":"view"},{"type":"function","name":"isPriceFeed","inputs":[{"name":"","type":"address","internalType":"address"}],"outputs":[{"name":"","type":"bool","internalType":"bool"}],"stateMutability":"view"},{"type":"function","name":"owner","inputs":[],"outputs":[{"name":"","type":"address","internalType":"address"}],"stateMutability":"view"},{"type":"function","name":"price","inputs":[{"name":"","type":"address","internalType":"address"}],"outputs":[{"name":"","type":"uint256","internalType":"uint256"}],"stateMutability":"view"},{"type":"function","name":"priceDecimals","inputs":[{"name":"","type":"address","internalType":"address"}],"outputs":[{"name":"","type":"uint8","internalType":"uint8"}],"stateMutability":"view"},{"type":"function","name":"renounceOwnership","inputs":[],"outputs":[],"stateMutability":"nonpayable"},{"type":"function","name":"setIsPriceFeed","inputs":[{"name":"_priceFeed","type":"address","internalType":"address"},{"name":"_isPriceFeed","type":"bool","internalType":"bool"}],"outputs":[],"stateMutability":"nonpayable"},{"type":"function","name":"setPriceDecimals","inputs":[{"name":"_token","type":"address","internalType":"address"},{"name":"_priceDecimals","type":"uint8","internalType":"uint8"}],"outputs":[],"stateMutability":"nonpayable"},{"type":"function","name":"transferOwnership","inputs":[{"name":"newOwner","type":"address","internalType":"address"}],"outputs":[],"stateMutability":"nonpayable"},{"type":"event","name":"OwnershipTransferred","inputs":[{"name":"previousOwner","type":"address","indexed":true,"internalType":"address"},{"name":"newOwner","type":"address","indexed":true,"internalType":"address"}],"anonymous":false},{"type":"event","name":"PriceUpdate","inputs":[{"name":"token","type":"address","indexed":false,"internalType":"address"},{"name":"price","type":"uint256","indexed":false,"internalType":"uint256"},{"name":"priceFeed","type":"address","indexed":false,"internalType":"address"}],"anonymous":false},{"type":"error","name":"OwnableInvalidOwner","inputs":[{"name":"owner","type":"address","internalType":"address"}]},{"type":"error","name":"OwnableUnauthorizedAccount","inputs":[{"name":"account","type":"address","internalType":"address"}]}],"bytecode":{"object":"0x6080346100bb57601f61051f38819003918201601f19168301916001600160401b038311848410176100c0578084926020946040528339810103126100bb57516001600160a01b0390818116908190036100bb5780156100a257600080546001600160a01b03198116831782556040519316907f8be0079c531659141344cd1fd0a4f28419497f9722a3daafe3b4186f6b6457e09080a361044890816100d78239f35b604051631e4fbdf760e01b815260006004820152602490fd5b600080fd5b634e487b7160e01b600052604160045260246000fdfe604060808152600436101561001357600080fd5b600090813560e01c80630a5281681461037a57806341976e091461022d57806357a94beb1461033d57806369d4c924146102e8578063715018a61461028b5780638b1b64bd146101f25780638da5cb5b14610264578063aea910781461022d578063cefe0f21146101f2578063e0409c71146101205763f2fde38b1461009857600080fd5b3461011c57602036600319011261011c576100b16103cb565b6100b96103e6565b6001600160a01b03908116918215610105575082546001600160a01b0319811683178455167f8be0079c531659141344cd1fd0a4f28419497f9722a3daafe3b4186f6b6457e08380a380f35b51631e4fbdf760e01b815260048101849052602490fd5b5080fd5b503461011c578060031936011261011c576101396103cb565b9060243591338452600160205260ff8285205416156101a4576001600160a01b031680845260036020908152828520849055825191825281019290925233908201527fc37a77b91cc3fc2d0e4b43fd2f347ec67adda10e39215de4742836cc3e42c97a90606090a180f35b815162461bcd60e51b815260206004820152602160248201527f50726963654f7261636c654576656e74733a20696e76616c69642073656e64656044820152603960f91b6064820152608490fd5b503461011c57602036600319011261011c5760209160ff9082906001600160a01b0361021c6103cb565b168152600285522054169051908152f35b503461011c57602036600319011261011c5760209181906001600160a01b036102546103cb565b1681526003845220549051908152f35b503461011c578160031936011261011c57905490516001600160a01b039091168152602090f35b82346102e557806003193601126102e5576102a46103e6565b80546001600160a01b03198116825581906001600160a01b03167f8be0079c531659141344cd1fd0a4f28419497f9722a3daafe3b4186f6b6457e08280a380f35b80fd5b503461011c578060031936011261011c576103016103cb565b9060243591821515809303610339576103186103e6565b60018060a01b03168352600160205282209060ff8019835416911617905580f35b8380fd5b503461011c57602036600319011261011c5760209160ff9082906001600160a01b036103676103cb565b1681526001855220541690519015158152f35b503461011c578060031936011261011c576103936103cb565b906024359160ff8316809303610339576103ab6103e6565b6001600160a01b0316835260026020528220805460ff1916909117905580f35b600435906001600160a01b03821682036103e157565b600080fd5b6000546001600160a01b031633036103fa57565b60405163118cdaa760e01b8152336004820152602490fdfea2646970667358221220782cf09404fbae5ecd4cfa783696e2de1fd658057ddb051e36516db786520a7864736f6c63430008170033","linkReferences":{}},"methodIdentifiers":{"emitPriceEvent(address,uint256)":"e0409c71","getPrice(address)":"41976e09","getPriceDecimals(address)":"8b1b64bd","isPriceFeed(address)":"57a94beb","owner()":"8da5cb5b","price(address)":"aea91078","priceDecimals(address)":"cefe0f21","renounceOwnership()":"715018a6","setIsPriceFeed(address,bool)":"69d4c924","setPriceDecimals(address,uint8)":"0a528168","transferOwnership(address)":"f2fde38b"},"id":44}